{
  "_format": "hh3-artifact-1",
  "contractName": "CrowdFund",
  "sourceName": "contracts/CrowdFund.sol",
  "abi": [
    {
      "inputs": [
        {
          "internalType": "uint256",
          "name": "_goal",
          "type": "uint256"
        },
        {
          "internalType": "uint256",
          "name": "_durationSeconds",
          "type": "uint256"
        },
        {
          "internalType": "string",
          "name": "_tokenName",
          "type": "string"
        },
        {
          "internalType": "string",
          "name": "_tokenSymbol",
          "type": "string"
        }
      ],
      "stateMutability": "nonpayable",
      "type": "constructor"
    },
    {
      "inputs": [],
      "name": "ReentrancyGuardReentrantCall",
      "type": "error"
    },
    {
      "anonymous": false,
      "inputs": [
        {
          "indexed": true,
          "internalType": "address",
          "name": "backer",
          "type": "address"
        },
        {
          "indexed": false,
          "internalType": "uint256",
          "name": "amount",
          "type": "uint256"
        },
        {
          "indexed": false,
          "internalType": "uint256",
          "name": "tokensMinted",
          "type": "uint256"
        }
      ],
      "name": "Funded",
      "type": "event"
    },
    {
      "anonymous": false,
      "inputs": [
        {
          "indexed": false,
          "internalType": "uint256",
          "name": "totalRaised",
          "type": "uint256"
        }
      ],
      "name": "GoalReached",
      "type": "event"
    },
    {
      "anonymous": false,
      "inputs": [
        {
          "indexed": true,
          "internalType": "address",
          "name": "backer",
          "type": "address"
        },
        {
          "indexed": false,
          "internalType": "uint256",
          "name": "amount",
          "type": "uint256"
        }
      ],
      "name": "Refunded",
      "type": "event"
    },
    {
      "anonymous": false,
      "inputs": [
        {
          "indexed": true,
          "internalType": "address",
          "name": "owner",
          "type": "address"
        },
        {
          "indexed": false,
          "internalType": "uint256",
          "name": "amount",
          "type": "uint256"
        }
      ],
      "name": "Withdrawn",
      "type": "event"
    },
    {
      "inputs": [],
      "name": "EARLY_BIRD_BONUS",
      "outputs": [
        {
          "internalType": "uint256",
          "name": "",
          "type": "uint256"
        }
      ],
      "stateMutability": "view",
      "type": "function"
    },
    {
      "inputs": [],
      "name": "EARLY_BIRD_LIMIT",
      "outputs": [
        {
          "internalType": "uint256",
          "name": "",
          "type": "uint256"
        }
      ],
      "stateMutability": "view",
      "type": "function"
    },
    {
      "inputs": [],
      "name": "EXCHANGE_RATE",
      "outputs": [
        {
          "internalType": "uint256",
          "name": "",
          "type": "uint256"
        }
      ],
      "stateMutability": "view",
      "type": "function"
    },
    {
      "inputs": [],
      "name": "claimRefund",
      "outputs": [],
      "stateMutability": "nonpayable",
      "type": "function"
    },
    {
      "inputs": [
        {
          "internalType": "address",
          "name": "",
          "type": "address"
        }
      ],
      "name": "contributions",
      "outputs": [
        {
          "internalType": "uint256",
          "name": "",
          "type": "uint256"
        }
      ],
      "stateMutability": "view",
      "type": "function"
    },
    {
      "inputs": [],
      "name": "deadline",
      "outputs": [
        {
          "internalType": "uint256",
          "name": "",
          "type": "uint256"
        }
      ],
      "stateMutability": "view",
      "type": "function"
    },
    {
      "inputs": [],
      "name": "fund",
      "outputs": [],
      "stateMutability": "payable",
      "type": "function"
    },
    {
      "inputs": [],
      "name": "getRemainingTime",
      "outputs": [
        {
          "internalType": "uint256",
          "name": "",
          "type": "uint256"
        }
      ],
      "stateMutability": "view",
      "type": "function"
    },
    {
      "inputs": [],
      "name": "getTotalRaised",
      "outputs": [
        {
          "internalType": "uint256",
          "name": "",
          "type": "uint256"
        }
      ],
      "stateMutability": "view",
      "type": "function"
    },
    {
      "inputs": [],
      "name": "goal",
      "outputs": [
        {
          "internalType": "uint256",
          "name": "",
          "type": "uint256"
        }
      ],
      "stateMutability": "view",
      "type": "function"
    },
    {
      "inputs": [
        {
          "internalType": "address",
          "name": "",
          "type": "address"
        }
      ],
      "name": "hasRefunded",
      "outputs": [
        {
          "internalType": "bool",
          "name": "",
          "type": "bool"
        }
      ],
      "stateMutability": "view",
      "type": "function"
    },
    {
      "inputs": [],
      "name": "investorCount",
      "outputs": [
        {
          "internalType": "uint256",
          "name": "",
          "type": "uint256"
        }
      ],
      "stateMutability": "view",
      "type": "function"
    },
    {
      "inputs": [],
      "name": "isRefundPhase",
      "outputs": [
        {
          "internalType": "bool",
          "name": "",
          "type": "bool"
        }
      ],
      "stateMutability": "view",
      "type": "function"
    },
    {
      "inputs": [],
      "name": "owner",
      "outputs": [
        {
          "internalType": "address",
          "name": "",
          "type": "address"
        }
      ],
      "stateMutability": "view",
      "type": "function"
    },
    {
      "inputs": [],
      "name": "refundDeadline",
      "outputs": [
        {
          "internalType": "uint256",
          "name": "",
          "type": "uint256"
        }
      ],
      "stateMutability": "view",
      "type": "function"
    },
    {
      "inputs": [],
      "name": "token",
      "outputs": [
        {
          "internalType": "contract ProjectToken",
          "name": "",
          "type": "address"
        }
      ],
      "stateMutability": "view",
      "type": "function"
    },
    {
      "inputs": [],
      "name": "totalRaised",
      "outputs": [
        {
          "internalType": "uint256",
          "name": "",
          "type": "uint256"
        }
      ],
      "stateMutability": "view",
      "type": "function"
    },
    {
      "inputs": [],
      "name": "withdrawFunds",
      "outputs": [],
      "stateMutability": "nonpayable",
      "type": "function"
    },
    {
      "stateMutability": "payable",
      "type": "receive"
    }
  ],
  "bytecode": "0x60e060405234801561000f575f5ffd5b506040516139c53803806139c5833981810160405281019061003191906102e0565b600161004f61004461012160201b60201c565b61014a60201b60201c565b5f01819055503373ffffffffffffffffffffffffffffffffffffffff1660808173ffffffffffffffffffffffffffffffffffffffff16815250508360a08181525050824261009d91906103a9565b60c081815250503082826040516100b390610153565b6100bf9392919061046d565b604051809103905ff0801580156100d8573d5f5f3e3d5ffd5b5060065f6101000a81548173ffffffffffffffffffffffffffffffffffffffff021916908373ffffffffffffffffffffffffffffffffffffffff160217905550505050506104b0565b5f7f9b779b17422d0df92223018b32b4d1fa46e071723d6817e2486d003becc55f005f1b905090565b5f819050919050565b611a2580611fa083390190565b5f604051905090565b5f5ffd5b5f5ffd5b5f819050919050565b61018381610171565b811461018d575f5ffd5b50565b5f8151905061019e8161017a565b92915050565b5f5ffd5b5f5ffd5b5f601f19601f8301169050919050565b7f4e487b71000000000000000000000000000000000000000000000000000000005f52604160045260245ffd5b6101f2826101ac565b810181811067ffffffffffffffff82111715610211576102106101bc565b5b80604052505050565b5f610223610160565b905061022f82826101e9565b919050565b5f67ffffffffffffffff82111561024e5761024d6101bc565b5b610257826101ac565b9050602081019050919050565b8281835e5f83830152505050565b5f61028461027f84610234565b61021a565b9050828152602081018484840111156102a05761029f6101a8565b5b6102ab848285610264565b509392505050565b5f82601f8301126102c7576102c66101a4565b5b81516102d7848260208601610272565b91505092915050565b5f5f5f5f608085870312156102f8576102f7610169565b5b5f61030587828801610190565b945050602061031687828801610190565b935050604085015167ffffffffffffffff8111156103375761033661016d565b5b610343878288016102b3565b925050606085015167ffffffffffffffff8111156103645761036361016d565b5b610370878288016102b3565b91505092959194509250565b7f4e487b71000000000000000000000000000000000000000000000000000000005f52601160045260245ffd5b5f6103b382610171565b91506103be83610171565b92508282019050808211156103d6576103d561037c565b5b92915050565b5f73ffffffffffffffffffffffffffffffffffffffff82169050919050565b5f610405826103dc565b9050919050565b610415816103fb565b82525050565b5f81519050919050565b5f82825260208201905092915050565b5f61043f8261041b565b6104498185610425565b9350610459818560208601610264565b610462816101ac565b840191505092915050565b5f6060820190506104805f83018661040c565b81810360208301526104928185610435565b905081810360408301526104a68184610435565b9050949350505050565b60805160a05160c051611a796105275f395f81816104b60152818161075b0152818161081d01528181610b9001528181610f0c0152610f3c01525f81816105200152818161079c015281816108870152610e8b01525f81816104280152818161061a015281816106e101526107ec0152611a795ff3fe60806040526004361061010c575f3560e01c80639e48182211610094578063c5c4744c11610063578063c5c4744c1461034e578063d7e64c0014610378578063e1aa1bcc146103a2578063efb98bcf146103cc578063fc0c546a146103f65761014c565b80639e481822146102da5780639f55029314610304578063b5545a3c1461032e578063b60d4288146103445761014c565b806340193883116100db57806340193883146101f657806342e94c901461022057806354575e521461025c5780635b51a25c146102865780638da5cb5b146102b05761014c565b806314a8bd0d1461015057806324600fc31461017a57806329dcb0cf146101905780632b6b0633146101ba5761014c565b3661014c576040517f08c379a0000000000000000000000000000000000000000000000000000000008152600401610143906110db565b60405180910390fd5b5f5ffd5b34801561015b575f5ffd5b50610164610420565b6040516101719190611111565b60405180910390f35b348015610185575f5ffd5b5061018e610426565b005b34801561019b575f5ffd5b506101a4610759565b6040516101b19190611111565b60405180910390f35b3480156101c5575f5ffd5b506101e060048036038101906101db9190611188565b61077d565b6040516101ed91906111cd565b60405180910390f35b348015610201575f5ffd5b5061020a61079a565b6040516102179190611111565b60405180910390f35b34801561022b575f5ffd5b5061024660048036038101906102419190611188565b6107be565b6040516102539190611111565b60405180910390f35b348015610267575f5ffd5b506102706107d3565b60405161027d9190611111565b60405180910390f35b348015610291575f5ffd5b5061029a6107d8565b6040516102a791906111cd565b60405180910390f35b3480156102bb575f5ffd5b506102c46107ea565b6040516102d191906111f5565b60405180910390f35b3480156102e5575f5ffd5b506102ee61080e565b6040516102fb9190611111565b60405180910390f35b34801561030f575f5ffd5b50610318610813565b6040516103259190611111565b60405180910390f35b348015610339575f5ffd5b5061034261081b565b005b61034c610b8e565b005b348015610359575f5ffd5b50610362610ef8565b60405161036f9190611111565b60405180910390f35b348015610383575f5ffd5b5061038c610efd565b6040516103999190611111565b60405180910390f35b3480156103ad575f5ffd5b506103b6610f03565b6040516103c39190611111565b60405180910390f35b3480156103d7575f5ffd5b506103e0610f09565b6040516103ed9190611111565b60405180910390f35b348015610401575f5ffd5b5061040a610f6b565b6040516104179190611269565b60405180910390f35b61271081565b7f000000000000000000000000000000000000000000000000000000000000000073ffffffffffffffffffffffffffffffffffffffff163373ffffffffffffffffffffffffffffffffffffffff16146104b4576040517f08c379a00000000000000000000000000000000000000000000000000000000081526004016104ab906112cc565b60405180910390fd5b7f00000000000000000000000000000000000000000000000000000000000000004211610516576040517f08c379a000000000000000000000000000000000000000000000000000000000815260040161050d90611334565b60405180910390fd5b61051e610f90565b7f00000000000000000000000000000000000000000000000000000000000000005f541015610582576040517f08c379a00000000000000000000000000000000000000000000000000000000081526004016105799061139c565b60405180910390fd5b60025f9054906101000a900460ff16156105d1576040517f08c379a00000000000000000000000000000000000000000000000000000000081526004016105c89061142a565b60405180910390fd5b5f4790505f8111610617576040517f08c379a000000000000000000000000000000000000000000000000000000000815260040161060e90611492565b60405180910390fd5b5f7f000000000000000000000000000000000000000000000000000000000000000073ffffffffffffffffffffffffffffffffffffffff168260405161065c906114dd565b5f6040518083038185875af1925050503d805f8114610696576040519150601f19603f3d011682016040523d82523d5f602084013e61069b565b606091505b50509050806106df576040517f08c379a00000000000000000000000000000000000000000000000000000000081526004016106d69061153b565b60405180910390fd5b7f000000000000000000000000000000000000000000000000000000000000000073ffffffffffffffffffffffffffffffffffffffff167f7084f5476618d8e60b11ef0d7d3f06914655adb8793e28ff7f018d4c76d505d5836040516107459190611111565b60405180910390a25050610757610fb2565b565b7f000000000000000000000000000000000000000000000000000000000000000081565b6005602052805f5260405f205f915054906101000a900460ff1681565b7f000000000000000000000000000000000000000000000000000000000000000081565b6004602052805f5260405f205f915090505481565b60c881565b60025f9054906101000a900460ff1681565b7f000000000000000000000000000000000000000000000000000000000000000081565b600a81565b5f5f54905090565b7f0000000000000000000000000000000000000000000000000000000000000000421161087d576040517f08c379a000000000000000000000000000000000000000000000000000000000815260040161087490611334565b60405180910390fd5b610885610f90565b7f00000000000000000000000000000000000000000000000000000000000000005f54106108e8576040517f08c379a00000000000000000000000000000000000000000000000000000000081526004016108df906115c9565b60405180910390fd5b5f60045f3373ffffffffffffffffffffffffffffffffffffffff1673ffffffffffffffffffffffffffffffffffffffff1681526020019081526020015f205490505f811161096b576040517f08c379a000000000000000000000000000000000000000000000000000000000815260040161096290611631565b60405180910390fd5b60055f3373ffffffffffffffffffffffffffffffffffffffff1673ffffffffffffffffffffffffffffffffffffffff1681526020019081526020015f205f9054906101000a900460ff16156109f5576040517f08c379a00000000000000000000000000000000000000000000000000000000081526004016109ec90611699565b60405180910390fd5b600160055f3373ffffffffffffffffffffffffffffffffffffffff1673ffffffffffffffffffffffffffffffffffffffff1681526020019081526020015f205f6101000a81548160ff0219169083151502179055505f60045f3373ffffffffffffffffffffffffffffffffffffffff1673ffffffffffffffffffffffffffffffffffffffff1681526020019081526020015f20819055505f3373ffffffffffffffffffffffffffffffffffffffff1682604051610ab1906114dd565b5f6040518083038185875af1925050503d805f8114610aeb576040519150601f19603f3d011682016040523d82523d5f602084013e610af0565b606091505b5050905080610b34576040517f08c379a0000000000000000000000000000000000000000000000000000000008152600401610b2b90611701565b60405180910390fd5b3373ffffffffffffffffffffffffffffffffffffffff167fd7dee2702d63ad89917b6a4da9981c90c4d24f8c2bdfd64c604ecae57d8d065183604051610b7a9190611111565b60405180910390a25050610b8c610fb2565b565b7f0000000000000000000000000000000000000000000000000000000000000000421115610bf1576040517f08c379a0000000000000000000000000000000000000000000000000000000008152600401610be890611769565b60405180910390fd5b610bf9610f90565b5f3411610c3b576040517f08c379a0000000000000000000000000000000000000000000000000000000008152600401610c32906117d1565b60405180910390fd5b5f3490505f612710670de0b6b3a764000083610c579190611849565b610c619190611879565b9050670de0b6b3a764000061271083610c7a9190611879565b610c849190611849565b90505f8111610cc8576040517f08c379a0000000000000000000000000000000000000000000000000000000008152600401610cbf9061192a565b60405180910390fd5b5f60045f3373ffffffffffffffffffffffffffffffffffffffff1673ffffffffffffffffffffffffffffffffffffffff1681526020019081526020015f205403610d245760015f815480929190610d1e90611948565b91905055505b8160045f3373ffffffffffffffffffffffffffffffffffffffff1673ffffffffffffffffffffffffffffffffffffffff1681526020019081526020015f205f828254610d70919061198f565b92505081905550815f5f828254610d87919061198f565b925050819055505f5f9050600a60015411610da15760c890505b5f8183610dae919061198f565b905060065f9054906101000a900473ffffffffffffffffffffffffffffffffffffffff1673ffffffffffffffffffffffffffffffffffffffff166340c10f1933836040518363ffffffff1660e01b8152600401610e0c9291906119c2565b5f604051808303815f87803b158015610e23575f5ffd5b505af1158015610e35573d5f5f3e3d5ffd5b505050503373ffffffffffffffffffffffffffffffffffffffff167fcd909ec339185c4598a4096e174308fbdf136d117f230960f873a2f2e81f63af8583604051610e819291906119e9565b60405180910390a27f00000000000000000000000000000000000000000000000000000000000000005f5410610eea577ffbfd8ab7c24300fa9888cd721c8565a7da56759384781283684dcf7c7c4a846b5f54604051610ee19190611111565b60405180910390a15b50505050610ef6610fb2565b565b5f5481565b60015481565b60035481565b5f7f00000000000000000000000000000000000000000000000000000000000000004210610f39575f9050610f68565b427f0000000000000000000000000000000000000000000000000000000000000000610f659190611a10565b90505b90565b60065f9054906101000a900473ffffffffffffffffffffffffffffffffffffffff1681565b610f98610fcc565b6002610faa610fa561100d565b611036565b5f0181905550565b6001610fc4610fbf61100d565b611036565b5f0181905550565b610fd461103f565b1561100b576040517f3ee5aeb500000000000000000000000000000000000000000000000000000000815260040160405180910390fd5b565b5f7f9b779b17422d0df92223018b32b4d1fa46e071723d6817e2486d003becc55f005f1b905090565b5f819050919050565b5f600261105261104d61100d565b611036565b5f015414905090565b5f82825260208201905092915050565b7f43726f776446756e643a207573652066756e64282920746f20636f6e747269625f8201527f7574650000000000000000000000000000000000000000000000000000000000602082015250565b5f6110c560238361105b565b91506110d08261106b565b604082019050919050565b5f6020820190508181035f8301526110f2816110b9565b9050919050565b5f819050919050565b61110b816110f9565b82525050565b5f6020820190506111245f830184611102565b92915050565b5f5ffd5b5f73ffffffffffffffffffffffffffffffffffffffff82169050919050565b5f6111578261112e565b9050919050565b6111678161114d565b8114611171575f5ffd5b50565b5f813590506111828161115e565b92915050565b5f6020828403121561119d5761119c61112a565b5b5f6111aa84828501611174565b91505092915050565b5f8115159050919050565b6111c7816111b3565b82525050565b5f6020820190506111e05f8301846111be565b92915050565b6111ef8161114d565b82525050565b5f6020820190506112085f8301846111e6565b92915050565b5f819050919050565b5f61123161122c6112278461112e565b61120e565b61112e565b9050919050565b5f61124282611217565b9050919050565b5f61125382611238565b9050919050565b61126381611249565b82525050565b5f60208201905061127c5f83018461125a565b92915050565b7f43726f776446756e643a206e6f74206f776e65720000000000000000000000005f82015250565b5f6112b660148361105b565b91506112c182611282565b602082019050919050565b5f6020820190508181035f8301526112e3816112aa565b9050919050565b7f43726f776446756e643a2066756e6472616973696e67206e6f7420656e6465645f82015250565b5f61131e60208361105b565b9150611329826112ea565b602082019050919050565b5f6020820190508181035f83015261134b81611312565b9050919050565b7f43726f776446756e643a20676f616c206e6f74207265616368656400000000005f82015250565b5f611386601b8361105b565b915061139182611352565b602082019050919050565b5f6020820190508181035f8301526113b38161137a565b9050919050565b7f43726f776446756e643a20696e20726566756e642070686173652c20757365205f8201527f636c61696d526566756e64000000000000000000000000000000000000000000602082015250565b5f611414602b8361105b565b915061141f826113ba565b604082019050919050565b5f6020820190508181035f83015261144181611408565b9050919050565b7f43726f776446756e643a206e6f2062616c616e636500000000000000000000005f82015250565b5f61147c60158361105b565b915061148782611448565b602082019050919050565b5f6020820190508181035f8301526114a981611470565b9050919050565b5f81905092915050565b50565b5f6114c85f836114b0565b91506114d3826114ba565b5f82019050919050565b5f6114e7826114bd565b9150819050919050565b7f43726f776446756e643a206661696c656420746f2073656e64204554480000005f82015250565b5f611525601d8361105b565b9150611530826114f1565b602082019050919050565b5f6020820190508181035f83015261155281611519565b9050919050565b7f43726f776446756e643a20676f616c20726561636865642c206e6f20726566755f8201527f6e64000000000000000000000000000000000000000000000000000000000000602082015250565b5f6115b360228361105b565b91506115be82611559565b604082019050919050565b5f6020820190508181035f8301526115e0816115a7565b9050919050565b7f43726f776446756e643a206e6f20636f6e747269627574696f6e0000000000005f82015250565b5f61161b601a8361105b565b9150611626826115e7565b602082019050919050565b5f6020820190508181035f8301526116488161160f565b9050919050565b7f43726f776446756e643a20616c726561647920726566756e64656400000000005f82015250565b5f611683601b8361105b565b915061168e8261164f565b602082019050919050565b5f6020820190508181035f8301526116b081611677565b9050919050565b7f43726f776446756e643a20726566756e64206661696c656400000000000000005f82015250565b5f6116eb60188361105b565b91506116f6826116b7565b602082019050919050565b5f6020820190508181035f830152611718816116df565b9050919050565b7f43726f776446756e643a2066756e6472616973696e6720656e646564000000005f82015250565b5f611753601c8361105b565b915061175e8261171f565b602082019050919050565b5f6020820190508181035f83015261178081611747565b9050919050565b7f43726f776446756e643a206d7573742073656e642045544800000000000000005f82015250565b5f6117bb60188361105b565b91506117c682611787565b602082019050919050565b5f6020820190508181035f8301526117e8816117af565b9050919050565b7f4e487b71000000000000000000000000000000000000000000000000000000005f52601260045260245ffd5b7f4e487b71000000000000000000000000000000000000000000000000000000005f52601160045260245ffd5b5f611853826110f9565b915061185e836110f9565b92508261186e5761186d6117ef565b5b828204905092915050565b5f611883826110f9565b915061188e836110f9565b925082820261189c816110f9565b915082820484148315176118b3576118b261181c565b5b5092915050565b7f43726f776446756e643a20636f6e747269627574696f6e20746f6f20736d616c5f8201527f6c00000000000000000000000000000000000000000000000000000000000000602082015250565b5f61191460218361105b565b915061191f826118ba565b604082019050919050565b5f6020820190508181035f83015261194181611908565b9050919050565b5f611952826110f9565b91507fffffffffffffffffffffffffffffffffffffffffffffffffffffffffffffffff82036119845761198361181c565b5b600182019050919050565b5f611999826110f9565b91506119a4836110f9565b92508282019050808211156119bc576119bb61181c565b5b92915050565b5f6040820190506119d55f8301856111e6565b6119e26020830184611102565b9392505050565b5f6040820190506119fc5f830185611102565b611a096020830184611102565b9392505050565b5f611a1a826110f9565b9150611a25836110f9565b9250828203905081811115611a3d57611a3c61181c565b5b9291505056fea26469706673582212203c8a016c3ee6c4ef02a7ef6d6a9924847833b0dd16a7fc263168a16cb5e8853664736f6c634300081c0033608060405234801561000f575f5ffd5b50604051611a25380380611a2583398181016040528101906100319190610388565b33828281600390816100439190610620565b5080600490816100539190610620565b5050505f73ffffffffffffffffffffffffffffffffffffffff168173ffffffffffffffffffffffffffffffffffffffff16036100c6575f6040517f1e4fbdf70000000000000000000000000000000000000000000000000000000081526004016100bd91906106fe565b60405180910390fd5b6100d58161011e60201b60201c565b508260065f6101000a81548173ffffffffffffffffffffffffffffffffffffffff021916908373ffffffffffffffffffffffffffffffffffffffff160217905550505050610717565b5f60055f9054906101000a900473ffffffffffffffffffffffffffffffffffffffff1690508160055f6101000a81548173ffffffffffffffffffffffffffffffffffffffff021916908373ffffffffffffffffffffffffffffffffffffffff1602179055508173ffffffffffffffffffffffffffffffffffffffff168173ffffffffffffffffffffffffffffffffffffffff167f8be0079c531659141344cd1fd0a4f28419497f9722a3daafe3b4186f6b6457e060405160405180910390a35050565b5f604051905090565b5f5ffd5b5f5ffd5b5f73ffffffffffffffffffffffffffffffffffffffff82169050919050565b5f61021b826101f2565b9050919050565b61022b81610211565b8114610235575f5ffd5b50565b5f8151905061024681610222565b92915050565b5f5ffd5b5f5ffd5b5f601f19601f8301169050919050565b7f4e487b71000000000000000000000000000000000000000000000000000000005f52604160045260245ffd5b61029a82610254565b810181811067ffffffffffffffff821117156102b9576102b8610264565b5b80604052505050565b5f6102cb6101e1565b90506102d78282610291565b919050565b5f67ffffffffffffffff8211156102f6576102f5610264565b5b6102ff82610254565b9050602081019050919050565b8281835e5f83830152505050565b5f61032c610327846102dc565b6102c2565b90508281526020810184848401111561034857610347610250565b5b61035384828561030c565b509392505050565b5f82601f83011261036f5761036e61024c565b5b815161037f84826020860161031a565b91505092915050565b5f5f5f6060848603121561039f5761039e6101ea565b5b5f6103ac86828701610238565b935050602084015167ffffffffffffffff8111156103cd576103cc6101ee565b5b6103d98682870161035b565b925050604084015167ffffffffffffffff8111156103fa576103f96101ee565b5b6104068682870161035b565b9150509250925092565b5f81519050919050565b7f4e487b71000000000000000000000000000000000000000000000000000000005f52602260045260245ffd5b5f600282049050600182168061045e57607f821691505b6020821081036104715761047061041a565b5b50919050565b5f819050815f5260205f209050919050565b5f6020601f8301049050919050565b5f82821b905092915050565b5f600883026104d37fffffffffffffffffffffffffffffffffffffffffffffffffffffffffffffffff82610498565b6104dd8683610498565b95508019841693508086168417925050509392505050565b5f819050919050565b5f819050919050565b5f61052161051c610517846104f5565b6104fe565b6104f5565b9050919050565b5f819050919050565b61053a83610507565b61054e61054682610528565b8484546104a4565b825550505050565b5f5f905090565b610565610556565b610570818484610531565b505050565b5b81811015610593576105885f8261055d565b600181019050610576565b5050565b601f8211156105d8576105a981610477565b6105b284610489565b810160208510156105c1578190505b6105d56105cd85610489565b830182610575565b50505b505050565b5f82821c905092915050565b5f6105f85f19846008026105dd565b1980831691505092915050565b5f61061083836105e9565b9150826002028217905092915050565b61062982610410565b67ffffffffffffffff81111561064257610641610264565b5b61064c8254610447565b610657828285610597565b5f60209050601f831160018114610688575f8415610676578287015190505b6106808582610605565b8655506106e7565b601f19841661069686610477565b5f5b828110156106bd57848901518255600182019150602085019450602081019050610698565b868310156106da57848901516106d6601f8916826105e9565b8355505b6001600288020188555050505b505050505050565b6106f881610211565b82525050565b5f6020820190506107115f8301846106ef565b92915050565b611301806107245f395ff3fe608060405234801561000f575f5ffd5b50600436106100f3575f3560e01c8063436019ad1161009557806395d89b411161006457806395d89b411461025f578063a9059cbb1461027d578063dd62ed3e146102ad578063f2fde38b146102dd576100f3565b8063436019ad146101e957806370a0823114610207578063715018a6146102375780638da5cb5b14610241576100f3565b806323b872dd116100d157806323b872dd14610163578063313ce5671461019357806334b371c7146101b157806340c10f19146101cd576100f3565b806306fdde03146100f7578063095ea7b31461011557806318160ddd14610145575b5f5ffd5b6100ff6102f9565b60405161010c9190610eec565b60405180910390f35b61012f600480360381019061012a9190610f9d565b610389565b60405161013c9190610ff5565b60405180910390f35b61014d6103ab565b60405161015a919061101d565b60405180910390f35b61017d60048036038101906101789190611036565b6103b4565b60405161018a9190610ff5565b60405180910390f35b61019b6103e2565b6040516101a891906110a1565b60405180910390f35b6101cb60048036038101906101c691906110ba565b6103ea565b005b6101e760048036038101906101e29190610f9d565b610435565b005b6101f16104d2565b6040516101fe91906110f4565b60405180910390f35b610221600480360381019061021c91906110ba565b6104f7565b60405161022e919061101d565b60405180910390f35b61023f61053c565b005b61024961054f565b60405161025691906110f4565b60405180910390f35b610267610577565b6040516102749190610eec565b60405180910390f35b61029760048036038101906102929190610f9d565b610607565b6040516102a49190610ff5565b60405180910390f35b6102c760048036038101906102c2919061110d565b610629565b6040516102d4919061101d565b60405180910390f35b6102f760048036038101906102f291906110ba565b6106ab565b005b60606003805461030890611178565b80601f016020809104026020016040519081016040528092919081815260200182805461033490611178565b801561037f5780601f106103565761010080835404028352916020019161037f565b820191905f5260205f20905b81548152906001019060200180831161036257829003601f168201915b5050505050905090565b5f5f61039361072f565b90506103a0818585610736565b600191505092915050565b5f600254905090565b5f5f6103be61072f565b90506103cb858285610748565b6103d68585856107db565b60019150509392505050565b5f6012905090565b6103f26108cb565b8060065f6101000a81548173ffffffffffffffffffffffffffffffffffffffff021916908373ffffffffffffffffffffffffffffffffffffffff16021790555050565b60065f9054906101000a900473ffffffffffffffffffffffffffffffffffffffff1673ffffffffffffffffffffffffffffffffffffffff163373ffffffffffffffffffffffffffffffffffffffff16146104c4576040517f08c379a00000000000000000000000000000000000000000000000000000000081526004016104bb90611218565b60405180910390fd5b6104ce8282610952565b5050565b60065f9054906101000a900473ffffffffffffffffffffffffffffffffffffffff1681565b5f5f5f8373ffffffffffffffffffffffffffffffffffffffff1673ffffffffffffffffffffffffffffffffffffffff1681526020019081526020015f20549050919050565b6105446108cb565b61054d5f6109d1565b565b5f60055f9054906101000a900473ffffffffffffffffffffffffffffffffffffffff16905090565b60606004805461058690611178565b80601f01602080910402602001604051908101604052809291908181526020018280546105b290611178565b80156105fd5780601f106105d4576101008083540402835291602001916105fd565b820191905f5260205f20905b8154815290600101906020018083116105e057829003601f168201915b5050505050905090565b5f5f61061161072f565b905061061e8185856107db565b600191505092915050565b5f60015f8473ffffffffffffffffffffffffffffffffffffffff1673ffffffffffffffffffffffffffffffffffffffff1681526020019081526020015f205f8373ffffffffffffffffffffffffffffffffffffffff1673ffffffffffffffffffffffffffffffffffffffff1681526020019081526020015f2054905092915050565b6106b36108cb565b5f73ffffffffffffffffffffffffffffffffffffffff168173ffffffffffffffffffffffffffffffffffffffff1603610723575f6040517f1e4fbdf700000000000000000000000000000000000000000000000000000000815260040161071a91906110f4565b60405180910390fd5b61072c816109d1565b50565b5f33905090565b6107438383836001610a94565b505050565b5f6107538484610629565b90507fffffffffffffffffffffffffffffffffffffffffffffffffffffffffffffffff8110156107d557818110156107c6578281836040517ffb8f41b20000000000000000000000000000000000000000000000000000000081526004016107bd93929190611236565b60405180910390fd5b6107d484848484035f610a94565b5b50505050565b5f73ffffffffffffffffffffffffffffffffffffffff168373ffffffffffffffffffffffffffffffffffffffff160361084b575f6040517f96c6fd1e00000000000000000000000000000000000000000000000000000000815260040161084291906110f4565b60405180910390fd5b5f73ffffffffffffffffffffffffffffffffffffffff168273ffffffffffffffffffffffffffffffffffffffff16036108bb575f6040517fec442f050000000000000000000000000000000000000000000000000000000081526004016108b291906110f4565b60405180910390fd5b6108c6838383610c63565b505050565b6108d361072f565b73ffffffffffffffffffffffffffffffffffffffff166108f161054f565b73ffffffffffffffffffffffffffffffffffffffff16146109505761091461072f565b6040517f118cdaa700000000000000000000000000000000000000000000000000000000815260040161094791906110f4565b60405180910390fd5b565b5f73ffffffffffffffffffffffffffffffffffffffff168273ffffffffffffffffffffffffffffffffffffffff16036109c2575f6040517fec442f050000000000000000000000000000000000000000000000000000000081526004016109b991906110f4565b60405180910390fd5b6109cd5f8383610c63565b5050565b5f60055f9054906101000a900473ffffffffffffffffffffffffffffffffffffffff1690508160055f6101000a81548173ffffffffffffffffffffffffffffffffffffffff021916908373ffffffffffffffffffffffffffffffffffffffff1602179055508173ffffffffffffffffffffffffffffffffffffffff168173ffffffffffffffffffffffffffffffffffffffff167f8be0079c531659141344cd1fd0a4f28419497f9722a3daafe3b4186f6b6457e060405160405180910390a35050565b5f73ffffffffffffffffffffffffffffffffffffffff168473ffffffffffffffffffffffffffffffffffffffff1603610b04575f6040517fe602df05000000000000000000000000000000000000000000000000000000008152600401610afb91906110f4565b60405180910390fd5b5f73ffffffffffffffffffffffffffffffffffffffff168373ffffffffffffffffffffffffffffffffffffffff1603610b74575f6040517f94280d62000000000000000000000000000000000000000000000000000000008152600401610b6b91906110f4565b60405180910390fd5b8160015f8673ffffffffffffffffffffffffffffffffffffffff1673ffffffffffffffffffffffffffffffffffffffff1681526020019081526020015f205f8573ffffffffffffffffffffffffffffffffffffffff1673ffffffffffffffffffffffffffffffffffffffff1681526020019081526020015f20819055508015610c5d578273ffffffffffffffffffffffffffffffffffffffff168473ffffffffffffffffffffffffffffffffffffffff167f8c5be1e5ebec7d5bd14f71427d1e84f3dd0314c0f7b2291e5b200ac8c7c3b92584604051610c54919061101d565b60405180910390a35b50505050565b5f73ffffffffffffffffffffffffffffffffffffffff168373ffffffffffffffffffffffffffffffffffffffff1603610cb3578060025f828254610ca79190611298565b92505081905550610d81565b5f5f5f8573ffffffffffffffffffffffffffffffffffffffff1673ffffffffffffffffffffffffffffffffffffffff1681526020019081526020015f2054905081811015610d3c578381836040517fe450d38c000000000000000000000000000000000000000000000000000000008152600401610d3393929190611236565b60405180910390fd5b8181035f5f8673ffffffffffffffffffffffffffffffffffffffff1673ffffffffffffffffffffffffffffffffffffffff1681526020019081526020015f2081905550505b5f73ffffffffffffffffffffffffffffffffffffffff168273ffffffffffffffffffffffffffffffffffffffff1603610dc8578060025f8282540392505081905550610e12565b805f5f8473ffffffffffffffffffffffffffffffffffffffff1673ffffffffffffffffffffffffffffffffffffffff1681526020019081526020015f205f82825401925050819055505b8173ffffffffffffffffffffffffffffffffffffffff168373ffffffffffffffffffffffffffffffffffffffff167fddf252ad1be2c89b69c2b068fc378daa952ba7f163c4a11628f55a4df523b3ef83604051610e6f919061101d565b60405180910390a3505050565b5f81519050919050565b5f82825260208201905092915050565b8281835e5f83830152505050565b5f601f19601f8301169050919050565b5f610ebe82610e7c565b610ec88185610e86565b9350610ed8818560208601610e96565b610ee181610ea4565b840191505092915050565b5f6020820190508181035f830152610f048184610eb4565b905092915050565b5f5ffd5b5f73ffffffffffffffffffffffffffffffffffffffff82169050919050565b5f610f3982610f10565b9050919050565b610f4981610f2f565b8114610f53575f5ffd5b50565b5f81359050610f6481610f40565b92915050565b5f819050919050565b610f7c81610f6a565b8114610f86575f5ffd5b50565b5f81359050610f9781610f73565b92915050565b5f5f60408385031215610fb357610fb2610f0c565b5b5f610fc085828601610f56565b9250506020610fd185828601610f89565b9150509250929050565b5f8115159050919050565b610fef81610fdb565b82525050565b5f6020820190506110085f830184610fe6565b92915050565b61101781610f6a565b82525050565b5f6020820190506110305f83018461100e565b92915050565b5f5f5f6060848603121561104d5761104c610f0c565b5b5f61105a86828701610f56565b935050602061106b86828701610f56565b925050604061107c86828701610f89565b9150509250925092565b5f60ff82169050919050565b61109b81611086565b82525050565b5f6020820190506110b45f830184611092565b92915050565b5f602082840312156110cf576110ce610f0c565b5b5f6110dc84828501610f56565b91505092915050565b6110ee81610f2f565b82525050565b5f6020820190506111075f8301846110e5565b92915050565b5f5f6040838503121561112357611122610f0c565b5b5f61113085828601610f56565b925050602061114185828601610f56565b9150509250929050565b7f4e487b71000000000000000000000000000000000000000000000000000000005f52602260045260245ffd5b5f600282049050600182168061118f57607f821691505b6020821081036111a2576111a161114b565b5b50919050565b7f50726f6a656374546f6b656e3a206f6e6c792063726f776446756e6420636f6e5f8201527f74726163742063616e206d696e74000000000000000000000000000000000000602082015250565b5f611202602e83610e86565b915061120d826111a8565b604082019050919050565b5f6020820190508181035f83015261122f816111f6565b9050919050565b5f6060820190506112495f8301866110e5565b611256602083018561100e565b611263604083018461100e565b949350505050565b7f4e487b71000000000000000000000000000000000000000000000000000000005f52601160045260245ffd5b5f6112a282610f6a565b91506112ad83610f6a565b92508282019050808211156112c5576112c461126b565b5b9291505056fea264697066735822122097fed669e68c4d3cf62d9f0de68ac93946b8ead1e550213d8176f620ffbcb39864736f6c634300081c0033",
  "linkReferences": {},
  "deployedLinkReferences": {},
  "immutableReferences": {
    "1179": [
      {
        "length": 32,
        "start": 1064
      },
      {
        "length": 32,
        "start": 1562
      },
      {
        "length": 32,
        "start": 1761
      },
      {
        "length": 32,
        "start": 2028
      }
    ],
    "1181": [
      {
        "length": 32,
        "start": 1312
      },
      {
        "length": 32,
        "start": 1948
      },
      {
        "length": 32,
        "start": 2183
      },
      {
        "length": 32,
        "start": 3723
      }
    ],
    "1183": [
      {
        "length": 32,
        "start": 1206
      },
      {
        "length": 32,
        "start": 1883
      },
      {
        "length": 32,
        "start": 2077
      },
      {
        "length": 32,
        "start": 2960
      },
      {
        "length": 32,
        "start": 3852
      },
      {
        "length": 32,
        "start": 3900
      }
    ]
  },
  "inputSourceName": "project/contracts/CrowdFund.sol",
  "buildInfoId": "solc-0_8_28-c65c198f59e2dc076b39a10dda7d47637414a3a8"
}