{
  "_format": "hh3-artifact-1",
  "contractName": "ProjectToken",
  "sourceName": "contracts/ProjectToken.sol",
  "abi": [
    {
      "inputs": [
        {
          "internalType": "address",
          "name": "_crowdFund",
          "type": "address"
        },
        {
          "internalType": "string",
          "name": "_name",
          "type": "string"
        },
        {
          "internalType": "string",
          "name": "_symbol",
          "type": "string"
        }
      ],
      "stateMutability": "nonpayable",
      "type": "constructor"
    },
    {
      "inputs": [
        {
          "internalType": "address",
          "name": "spender",
          "type": "address"
        },
        {
          "internalType": "uint256",
          "name": "allowance",
          "type": "uint256"
        },
        {
          "internalType": "uint256",
          "name": "needed",
          "type": "uint256"
        }
      ],
      "name": "ERC20InsufficientAllowance",
      "type": "error"
    },
    {
      "inputs": [
        {
          "internalType": "address",
          "name": "sender",
          "type": "address"
        },
        {
          "internalType": "uint256",
          "name": "balance",
          "type": "uint256"
        },
        {
          "internalType": "uint256",
          "name": "needed",
          "type": "uint256"
        }
      ],
      "name": "ERC20InsufficientBalance",
      "type": "error"
    },
    {
      "inputs": [
        {
          "internalType": "address",
          "name": "approver",
          "type": "address"
        }
      ],
      "name": "ERC20InvalidApprover",
      "type": "error"
    },
    {
      "inputs": [
        {
          "internalType": "address",
          "name": "receiver",
          "type": "address"
        }
      ],
      "name": "ERC20InvalidReceiver",
      "type": "error"
    },
    {
      "inputs": [
        {
          "internalType": "address",
          "name": "sender",
          "type": "address"
        }
      ],
      "name": "ERC20InvalidSender",
      "type": "error"
    },
    {
      "inputs": [
        {
          "internalType": "address",
          "name": "spender",
          "type": "address"
        }
      ],
      "name": "ERC20InvalidSpender",
      "type": "error"
    },
    {
      "inputs": [
        {
          "internalType": "address",
          "name": "owner",
          "type": "address"
        }
      ],
      "name": "OwnableInvalidOwner",
      "type": "error"
    },
    {
      "inputs": [
        {
          "internalType": "address",
          "name": "account",
          "type": "address"
        }
      ],
      "name": "OwnableUnauthorizedAccount",
      "type": "error"
    },
    {
      "anonymous": false,
      "inputs": [
        {
          "indexed": true,
          "internalType": "address",
          "name": "owner",
          "type": "address"
        },
        {
          "indexed": true,
          "internalType": "address",
          "name": "spender",
          "type": "address"
        },
        {
          "indexed": false,
          "internalType": "uint256",
          "name": "value",
          "type": "uint256"
        }
      ],
      "name": "Approval",
      "type": "event"
    },
    {
      "anonymous": false,
      "inputs": [
        {
          "indexed": true,
          "internalType": "address",
          "name": "previousOwner",
          "type": "address"
        },
        {
          "indexed": true,
          "internalType": "address",
          "name": "newOwner",
          "type": "address"
        }
      ],
      "name": "OwnershipTransferred",
      "type": "event"
    },
    {
      "anonymous": false,
      "inputs": [
        {
          "indexed": true,
          "internalType": "address",
          "name": "from",
          "type": "address"
        },
        {
          "indexed": true,
          "internalType": "address",
          "name": "to",
          "type": "address"
        },
        {
          "indexed": false,
          "internalType": "uint256",
          "name": "value",
          "type": "uint256"
        }
      ],
      "name": "Transfer",
      "type": "event"
    },
    {
      "inputs": [
        {
          "internalType": "address",
          "name": "owner",
          "type": "address"
        },
        {
          "internalType": "address",
          "name": "spender",
          "type": "address"
        }
      ],
      "name": "allowance",
      "outputs": [
        {
          "internalType": "uint256",
          "name": "",
          "type": "uint256"
        }
      ],
      "stateMutability": "view",
      "type": "function"
    },
    {
      "inputs": [
        {
          "internalType": "address",
          "name": "spender",
          "type": "address"
        },
        {
          "internalType": "uint256",
          "name": "value",
          "type": "uint256"
        }
      ],
      "name": "approve",
      "outputs": [
        {
          "internalType": "bool",
          "name": "",
          "type": "bool"
        }
      ],
      "stateMutability": "nonpayable",
      "type": "function"
    },
    {
      "inputs": [
        {
          "internalType": "address",
          "name": "account",
          "type": "address"
        }
      ],
      "name": "balanceOf",
      "outputs": [
        {
          "internalType": "uint256",
          "name": "",
          "type": "uint256"
        }
      ],
      "stateMutability": "view",
      "type": "function"
    },
    {
      "inputs": [],
      "name": "crowdFundContract",
      "outputs": [
        {
          "internalType": "address",
          "name": "",
          "type": "address"
        }
      ],
      "stateMutability": "view",
      "type": "function"
    },
    {
      "inputs": [],
      "name": "decimals",
      "outputs": [
        {
          "internalType": "uint8",
          "name": "",
          "type": "uint8"
        }
      ],
      "stateMutability": "view",
      "type": "function"
    },
    {
      "inputs": [
        {
          "internalType": "address",
          "name": "to",
          "type": "address"
        },
        {
          "internalType": "uint256",
          "name": "amount",
          "type": "uint256"
        }
      ],
      "name": "mint",
      "outputs": [],
      "stateMutability": "nonpayable",
      "type": "function"
    },
    {
      "inputs": [],
      "name": "name",
      "outputs": [
        {
          "internalType": "string",
          "name": "",
          "type": "string"
        }
      ],
      "stateMutability": "view",
      "type": "function"
    },
    {
      "inputs": [],
      "name": "owner",
      "outputs": [
        {
          "internalType": "address",
          "name": "",
          "type": "address"
        }
      ],
      "stateMutability": "view",
      "type": "function"
    },
    {
      "inputs": [],
      "name": "renounceOwnership",
      "outputs": [],
      "stateMutability": "nonpayable",
      "type": "function"
    },
    {
      "inputs": [
        {
          "internalType": "address",
          "name": "_newCrowdFund",
          "type": "address"
        }
      ],
      "name": "setCrowdFundContract",
      "outputs": [],
      "stateMutability": "nonpayable",
      "type": "function"
    },
    {
      "inputs": [],
      "name": "symbol",
      "outputs": [
        {
          "internalType": "string",
          "name": "",
          "type": "string"
        }
      ],
      "stateMutability": "view",
      "type": "function"
    },
    {
      "inputs": [],
      "name": "totalSupply",
      "outputs": [
        {
          "internalType": "uint256",
          "name": "",
          "type": "uint256"
        }
      ],
      "stateMutability": "view",
      "type": "function"
    },
    {
      "inputs": [
        {
          "internalType": "address",
          "name": "to",
          "type": "address"
        },
        {
          "internalType": "uint256",
          "name": "value",
          "type": "uint256"
        }
      ],
      "name": "transfer",
      "outputs": [
        {
          "internalType": "bool",
          "name": "",
          "type": "bool"
        }
      ],
      "stateMutability": "nonpayable",
      "type": "function"
    },
    {
      "inputs": [
        {
          "internalType": "address",
          "name": "from",
          "type": "address"
        },
        {
          "internalType": "address",
          "name": "to",
          "type": "address"
        },
        {
          "internalType": "uint256",
          "name": "value",
          "type": "uint256"
        }
      ],
      "name": "transferFrom",
      "outputs": [
        {
          "internalType": "bool",
          "name": "",
          "type": "bool"
        }
      ],
      "stateMutability": "nonpayable",
      "type": "function"
    },
    {
      "inputs": [
        {
          "internalType": "address",
          "name": "newOwner",
          "type": "address"
        }
      ],
      "name": "transferOwnership",
      "outputs": [],
      "stateMutability": "nonpayable",
      "type": "function"
    }
  ],
  "bytecode": "0x608060405234801561000f575f5ffd5b50604051611a25380380611a2583398181016040528101906100319190610388565b33828281600390816100439190610620565b5080600490816100539190610620565b5050505f73ffffffffffffffffffffffffffffffffffffffff168173ffffffffffffffffffffffffffffffffffffffff16036100c6575f6040517f1e4fbdf70000000000000000000000000000000000000000000000000000000081526004016100bd91906106fe565b60405180910390fd5b6100d58161011e60201b60201c565b508260065f6101000a81548173ffffffffffffffffffffffffffffffffffffffff021916908373ffffffffffffffffffffffffffffffffffffffff160217905550505050610717565b5f60055f9054906101000a900473ffffffffffffffffffffffffffffffffffffffff1690508160055f6101000a81548173ffffffffffffffffffffffffffffffffffffffff021916908373ffffffffffffffffffffffffffffffffffffffff1602179055508173ffffffffffffffffffffffffffffffffffffffff168173ffffffffffffffffffffffffffffffffffffffff167f8be0079c531659141344cd1fd0a4f28419497f9722a3daafe3b4186f6b6457e060405160405180910390a35050565b5f604051905090565b5f5ffd5b5f5ffd5b5f73ffffffffffffffffffffffffffffffffffffffff82169050919050565b5f61021b826101f2565b9050919050565b61022b81610211565b8114610235575f5ffd5b50565b5f8151905061024681610222565b92915050565b5f5ffd5b5f5ffd5b5f601f19601f8301169050919050565b7f4e487b71000000000000000000000000000000000000000000000000000000005f52604160045260245ffd5b61029a82610254565b810181811067ffffffffffffffff821117156102b9576102b8610264565b5b80604052505050565b5f6102cb6101e1565b90506102d78282610291565b919050565b5f67ffffffffffffffff8211156102f6576102f5610264565b5b6102ff82610254565b9050602081019050919050565b8281835e5f83830152505050565b5f61032c610327846102dc565b6102c2565b90508281526020810184848401111561034857610347610250565b5b61035384828561030c565b509392505050565b5f82601f83011261036f5761036e61024c565b5b815161037f84826020860161031a565b91505092915050565b5f5f5f6060848603121561039f5761039e6101ea565b5b5f6103ac86828701610238565b935050602084015167ffffffffffffffff8111156103cd576103cc6101ee565b5b6103d98682870161035b565b925050604084015167ffffffffffffffff8111156103fa576103f96101ee565b5b6104068682870161035b565b9150509250925092565b5f81519050919050565b7f4e487b71000000000000000000000000000000000000000000000000000000005f52602260045260245ffd5b5f600282049050600182168061045e57607f821691505b6020821081036104715761047061041a565b5b50919050565b5f819050815f5260205f209050919050565b5f6020601f8301049050919050565b5f82821b905092915050565b5f600883026104d37fffffffffffffffffffffffffffffffffffffffffffffffffffffffffffffffff82610498565b6104dd8683610498565b95508019841693508086168417925050509392505050565b5f819050919050565b5f819050919050565b5f61052161051c610517846104f5565b6104fe565b6104f5565b9050919050565b5f819050919050565b61053a83610507565b61054e61054682610528565b8484546104a4565b825550505050565b5f5f905090565b610565610556565b610570818484610531565b505050565b5b81811015610593576105885f8261055d565b600181019050610576565b5050565b601f8211156105d8576105a981610477565b6105b284610489565b810160208510156105c1578190505b6105d56105cd85610489565b830182610575565b50505b505050565b5f82821c905092915050565b5f6105f85f19846008026105dd565b1980831691505092915050565b5f61061083836105e9565b9150826002028217905092915050565b61062982610410565b67ffffffffffffffff81111561064257610641610264565b5b61064c8254610447565b610657828285610597565b5f60209050601f831160018114610688575f8415610676578287015190505b6106808582610605565b8655506106e7565b601f19841661069686610477565b5f5b828110156106bd57848901518255600182019150602085019450602081019050610698565b868310156106da57848901516106d6601f8916826105e9565b8355505b6001600288020188555050505b505050505050565b6106f881610211565b82525050565b5f6020820190506107115f8301846106ef565b92915050565b611301806107245f395ff3fe608060405234801561000f575f5ffd5b50600436106100f3575f3560e01c8063436019ad1161009557806395d89b411161006457806395d89b411461025f578063a9059cbb1461027d578063dd62ed3e146102ad578063f2fde38b146102dd576100f3565b8063436019ad146101e957806370a0823114610207578063715018a6146102375780638da5cb5b14610241576100f3565b806323b872dd116100d157806323b872dd14610163578063313ce5671461019357806334b371c7146101b157806340c10f19146101cd576100f3565b806306fdde03146100f7578063095ea7b31461011557806318160ddd14610145575b5f5ffd5b6100ff6102f9565b60405161010c9190610eec565b60405180910390f35b61012f600480360381019061012a9190610f9d565b610389565b60405161013c9190610ff5565b60405180910390f35b61014d6103ab565b60405161015a919061101d565b60405180910390f35b61017d60048036038101906101789190611036565b6103b4565b60405161018a9190610ff5565b60405180910390f35b61019b6103e2565b6040516101a891906110a1565b60405180910390f35b6101cb60048036038101906101c691906110ba565b6103ea565b005b6101e760048036038101906101e29190610f9d565b610435565b005b6101f16104d2565b6040516101fe91906110f4565b60405180910390f35b610221600480360381019061021c91906110ba565b6104f7565b60405161022e919061101d565b60405180910390f35b61023f61053c565b005b61024961054f565b60405161025691906110f4565b60405180910390f35b610267610577565b6040516102749190610eec565b60405180910390f35b61029760048036038101906102929190610f9d565b610607565b6040516102a49190610ff5565b60405180910390f35b6102c760048036038101906102c2919061110d565b610629565b6040516102d4919061101d565b60405180910390f35b6102f760048036038101906102f291906110ba565b6106ab565b005b60606003805461030890611178565b80601f016020809104026020016040519081016040528092919081815260200182805461033490611178565b801561037f5780601f106103565761010080835404028352916020019161037f565b820191905f5260205f20905b81548152906001019060200180831161036257829003601f168201915b5050505050905090565b5f5f61039361072f565b90506103a0818585610736565b600191505092915050565b5f600254905090565b5f5f6103be61072f565b90506103cb858285610748565b6103d68585856107db565b60019150509392505050565b5f6012905090565b6103f26108cb565b8060065f6101000a81548173ffffffffffffffffffffffffffffffffffffffff021916908373ffffffffffffffffffffffffffffffffffffffff16021790555050565b60065f9054906101000a900473ffffffffffffffffffffffffffffffffffffffff1673ffffffffffffffffffffffffffffffffffffffff163373ffffffffffffffffffffffffffffffffffffffff16146104c4576040517f08c379a00000000000000000000000000000000000000000000000000000000081526004016104bb90611218565b60405180910390fd5b6104ce8282610952565b5050565b60065f9054906101000a900473ffffffffffffffffffffffffffffffffffffffff1681565b5f5f5f8373ffffffffffffffffffffffffffffffffffffffff1673ffffffffffffffffffffffffffffffffffffffff1681526020019081526020015f20549050919050565b6105446108cb565b61054d5f6109d1565b565b5f60055f9054906101000a900473ffffffffffffffffffffffffffffffffffffffff16905090565b60606004805461058690611178565b80601f01602080910402602001604051908101604052809291908181526020018280546105b290611178565b80156105fd5780601f106105d4576101008083540402835291602001916105fd565b820191905f5260205f20905b8154815290600101906020018083116105e057829003601f168201915b5050505050905090565b5f5f61061161072f565b905061061e8185856107db565b600191505092915050565b5f60015f8473ffffffffffffffffffffffffffffffffffffffff1673ffffffffffffffffffffffffffffffffffffffff1681526020019081526020015f205f8373ffffffffffffffffffffffffffffffffffffffff1673ffffffffffffffffffffffffffffffffffffffff1681526020019081526020015f2054905092915050565b6106b36108cb565b5f73ffffffffffffffffffffffffffffffffffffffff168173ffffffffffffffffffffffffffffffffffffffff1603610723575f6040517f1e4fbdf700000000000000000000000000000000000000000000000000000000815260040161071a91906110f4565b60405180910390fd5b61072c816109d1565b50565b5f33905090565b6107438383836001610a94565b505050565b5f6107538484610629565b90507fffffffffffffffffffffffffffffffffffffffffffffffffffffffffffffffff8110156107d557818110156107c6578281836040517ffb8f41b20000000000000000000000000000000000000000000000000000000081526004016107bd93929190611236565b60405180910390fd5b6107d484848484035f610a94565b5b50505050565b5f73ffffffffffffffffffffffffffffffffffffffff168373ffffffffffffffffffffffffffffffffffffffff160361084b575f6040517f96c6fd1e00000000000000000000000000000000000000000000000000000000815260040161084291906110f4565b60405180910390fd5b5f73ffffffffffffffffffffffffffffffffffffffff168273ffffffffffffffffffffffffffffffffffffffff16036108bb575f6040517fec442f050000000000000000000000000000000000000000000000000000000081526004016108b291906110f4565b60405180910390fd5b6108c6838383610c63565b505050565b6108d361072f565b73ffffffffffffffffffffffffffffffffffffffff166108f161054f565b73ffffffffffffffffffffffffffffffffffffffff16146109505761091461072f565b6040517f118cdaa700000000000000000000000000000000000000000000000000000000815260040161094791906110f4565b60405180910390fd5b565b5f73ffffffffffffffffffffffffffffffffffffffff168273ffffffffffffffffffffffffffffffffffffffff16036109c2575f6040517fec442f050000000000000000000000000000000000000000000000000000000081526004016109b991906110f4565b60405180910390fd5b6109cd5f8383610c63565b5050565b5f60055f9054906101000a900473ffffffffffffffffffffffffffffffffffffffff1690508160055f6101000a81548173ffffffffffffffffffffffffffffffffffffffff021916908373ffffffffffffffffffffffffffffffffffffffff1602179055508173ffffffffffffffffffffffffffffffffffffffff168173ffffffffffffffffffffffffffffffffffffffff167f8be0079c531659141344cd1fd0a4f28419497f9722a3daafe3b4186f6b6457e060405160405180910390a35050565b5f73ffffffffffffffffffffffffffffffffffffffff168473ffffffffffffffffffffffffffffffffffffffff1603610b04575f6040517fe602df05000000000000000000000000000000000000000000000000000000008152600401610afb91906110f4565b60405180910390fd5b5f73ffffffffffffffffffffffffffffffffffffffff168373ffffffffffffffffffffffffffffffffffffffff1603610b74575f6040517f94280d62000000000000000000000000000000000000000000000000000000008152600401610b6b91906110f4565b60405180910390fd5b8160015f8673ffffffffffffffffffffffffffffffffffffffff1673ffffffffffffffffffffffffffffffffffffffff1681526020019081526020015f205f8573ffffffffffffffffffffffffffffffffffffffff1673ffffffffffffffffffffffffffffffffffffffff1681526020019081526020015f20819055508015610c5d578273ffffffffffffffffffffffffffffffffffffffff168473ffffffffffffffffffffffffffffffffffffffff167f8c5be1e5ebec7d5bd14f71427d1e84f3dd0314c0f7b2291e5b200ac8c7c3b92584604051610c54919061101d565b60405180910390a35b50505050565b5f73ffffffffffffffffffffffffffffffffffffffff168373ffffffffffffffffffffffffffffffffffffffff1603610cb3578060025f828254610ca79190611298565b92505081905550610d81565b5f5f5f8573ffffffffffffffffffffffffffffffffffffffff1673ffffffffffffffffffffffffffffffffffffffff1681526020019081526020015f2054905081811015610d3c578381836040517fe450d38c000000000000000000000000000000000000000000000000000000008152600401610d3393929190611236565b60405180910390fd5b8181035f5f8673ffffffffffffffffffffffffffffffffffffffff1673ffffffffffffffffffffffffffffffffffffffff1681526020019081526020015f2081905550505b5f73ffffffffffffffffffffffffffffffffffffffff168273ffffffffffffffffffffffffffffffffffffffff1603610dc8578060025f8282540392505081905550610e12565b805f5f8473ffffffffffffffffffffffffffffffffffffffff1673ffffffffffffffffffffffffffffffffffffffff1681526020019081526020015f205f82825401925050819055505b8173ffffffffffffffffffffffffffffffffffffffff168373ffffffffffffffffffffffffffffffffffffffff167fddf252ad1be2c89b69c2b068fc378daa952ba7f163c4a11628f55a4df523b3ef83604051610e6f919061101d565b60405180910390a3505050565b5f81519050919050565b5f82825260208201905092915050565b8281835e5f83830152505050565b5f601f19601f8301169050919050565b5f610ebe82610e7c565b610ec88185610e86565b9350610ed8818560208601610e96565b610ee181610ea4565b840191505092915050565b5f6020820190508181035f830152610f048184610eb4565b905092915050565b5f5ffd5b5f73ffffffffffffffffffffffffffffffffffffffff82169050919050565b5f610f3982610f10565b9050919050565b610f4981610f2f565b8114610f53575f5ffd5b50565b5f81359050610f6481610f40565b92915050565b5f819050919050565b610f7c81610f6a565b8114610f86575f5ffd5b50565b5f81359050610f9781610f73565b92915050565b5f5f60408385031215610fb357610fb2610f0c565b5b5f610fc085828601610f56565b9250506020610fd185828601610f89565b9150509250929050565b5f8115159050919050565b610fef81610fdb565b82525050565b5f6020820190506110085f830184610fe6565b92915050565b61101781610f6a565b82525050565b5f6020820190506110305f83018461100e565b92915050565b5f5f5f6060848603121561104d5761104c610f0c565b5b5f61105a86828701610f56565b935050602061106b86828701610f56565b925050604061107c86828701610f89565b9150509250925092565b5f60ff82169050919050565b61109b81611086565b82525050565b5f6020820190506110b45f830184611092565b92915050565b5f602082840312156110cf576110ce610f0c565b5b5f6110dc84828501610f56565b91505092915050565b6110ee81610f2f565b82525050565b5f6020820190506111075f8301846110e5565b92915050565b5f5f6040838503121561112357611122610f0c565b5b5f61113085828601610f56565b925050602061114185828601610f56565b9150509250929050565b7f4e487b71000000000000000000000000000000000000000000000000000000005f52602260045260245ffd5b5f600282049050600182168061118f57607f821691505b6020821081036111a2576111a161114b565b5b50919050565b7f50726f6a656374546f6b656e3a206f6e6c792063726f776446756e6420636f6e5f8201527f74726163742063616e206d696e74000000000000000000000000000000000000602082015250565b5f611202602e83610e86565b915061120d826111a8565b604082019050919050565b5f6020820190508181035f83015261122f816111f6565b9050919050565b5f6060820190506112495f8301866110e5565b611256602083018561100e565b611263604083018461100e565b949350505050565b7f4e487b71000000000000000000000000000000000000000000000000000000005f52601160045260245ffd5b5f6112a282610f6a565b91506112ad83610f6a565b92508282019050808211156112c5576112c461126b565b5b9291505056fea264697066735822122097fed669e68c4d3cf62d9f0de68ac93946b8ead1e550213d8176f620ffbcb39864736f6c634300081c0033",
  "linkReferences": {},
  "deployedLinkReferences": {},
  "immutableReferences": {},
  "inputSourceName": "project/contracts/ProjectToken.sol",
  "buildInfoId": "solc-0_8_28-c65c198f59e2dc076b39a10dda7d47637414a3a8"
}